{
    "_format": "hh-sol-artifact-1",
    "contractName": "SMS_Aggregator",
    "sourceName": "contracts/SMS_Aggregator.sol",
    "abi": [
        {
            "inputs": [],
            "stateMutability": "nonpayable",
            "type": "constructor"
        },
        {
            "anonymous": false,
            "inputs": [
                {
                    "indexed": true,
                    "internalType": "address",
                    "name": "_from",
                    "type": "address"
                },
                {
                    "indexed": false,
                    "internalType": "string",
                    "name": "key",
                    "type": "string"
                },
                {
                    "indexed": false,
                    "internalType": "uint256",
                    "name": "date",
                    "type": "uint256"
                },
                {
                    "indexed": false,
                    "internalType": "string",
                    "name": "description",
                    "type": "string"
                }
            ],
            "name": "SecretAdded",
            "type": "event"
        },
        {
            "inputs": [
                {
                    "internalType": "string",
                    "name": "_key",
                    "type": "string"
                },
                {
                    "internalType": "uint256",
                    "name": "_date",
                    "type": "uint256"
                },
                {
                    "internalType": "string",
                    "name": "_description",
                    "type": "string"
                }
            ],
            "name": "addSecret",
            "outputs": [],
            "stateMutability": "nonpayable",
            "type": "function"
        },
        {
            "inputs": [],
            "name": "getMyScret",
            "outputs": [
                {
                    "components": [
                        {
                            "internalType": "string",
                            "name": "key",
                            "type": "string"
                        },
                        {
                            "internalType": "uint256",
                            "name": "date",
                            "type": "uint256"
                        },
                        {
                            "internalType": "string",
                            "name": "description",
                            "type": "string"
                        }
                    ],
                    "internalType": "struct SMS_Aggregator.Secret[]",
                    "name": "",
                    "type": "tuple[]"
                }
            ],
            "stateMutability": "view",
            "type": "function"
        }
    ],
    "bytecode": "0x608060405234801561001057600080fd5b50610780806100206000396000f3fe608060405234801561001057600080fd5b50600436106100365760003560e01c80633864b1bf1461003b578063c684fd7d14610050575b600080fd5b61004e61004936600461042a565b61006e565b005b61005861015c565b60405161006591906104dd565b60405180910390f35b33600090815260208190526040812054610089906001610584565b60408051606081018252868152602080820187905281830186905233600090815260018252838120858252909152919091208151929350909181906100ce9082610626565b5060208201516001820155604082015160028201906100ed9082610626565b5050336000908152602081905260408120805492509061010c836106e6565b9190505550336001600160a01b03167f072a6ab243027684badc719934afab9cc032727d01ad9b42ef2ff068b172606385858560405161014e939291906106ff565b60405180910390a250505050565b336000908152602081905260408120546060918167ffffffffffffffff81111561018857610188610387565b6040519080825280602002602001820160405280156101dd57816020015b6101ca60405180606001604052806060815260200160008152602001606081525090565b8152602001906001900390816101a65790505b50905060005b828110156103805733600090815260016020819052604082209190610209908490610584565b81526020019081526020016000206040518060600160405290816000820180546102329061059d565b80601f016020809104026020016040519081016040528092919081815260200182805461025e9061059d565b80156102ab5780601f10610280576101008083540402835291602001916102ab565b820191906000526020600020905b81548152906001019060200180831161028e57829003601f168201915b50505050508152602001600182015481526020016002820180546102ce9061059d565b80601f01602080910402602001604051908101604052809291908181526020018280546102fa9061059d565b80156103475780601f1061031c57610100808354040283529160200191610347565b820191906000526020600020905b81548152906001019060200180831161032a57829003601f168201915b50505050508152505082828151811061036257610362610734565b60200260200101819052508080610378906106e6565b9150506101e3565b5092915050565b634e487b7160e01b600052604160045260246000fd5b600082601f8301126103ae57600080fd5b813567ffffffffffffffff808211156103c9576103c9610387565b604051601f8301601f19908116603f011681019082821181831017156103f1576103f1610387565b8160405283815286602085880101111561040a57600080fd5b836020870160208301376000602085830101528094505050505092915050565b60008060006060848603121561043f57600080fd5b833567ffffffffffffffff8082111561045757600080fd5b6104638783880161039d565b945060208601359350604086013591508082111561048057600080fd5b5061048d8682870161039d565b9150509250925092565b6000815180845260005b818110156104bd576020818501810151868301820152016104a1565b506000602082860101526020601f19601f83011685010191505092915050565b60006020808301818452808551808352604092508286019150828160051b87010184880160005b8381101561056057603f1989840301855281516060815181865261052a82870182610497565b91505088820151898601528782015191508481038886015261054c8183610497565b968901969450505090860190600101610504565b509098975050505050505050565b634e487b7160e01b600052601160045260246000fd5b808201808211156105975761059761056e565b92915050565b600181811c908216806105b157607f821691505b6020821081036105d157634e487b7160e01b600052602260045260246000fd5b50919050565b601f82111561062157600081815260208120601f850160051c810160208610156105fe5750805b601f850160051c820191505b8181101561061d5782815560010161060a565b5050505b505050565b815167ffffffffffffffff81111561064057610640610387565b6106548161064e845461059d565b846105d7565b602080601f83116001811461068957600084156106715750858301515b600019600386901b1c1916600185901b17855561061d565b600085815260208120601f198616915b828110156106b857888601518255948401946001909101908401610699565b50858210156106d65787850151600019600388901b60f8161c191681555b5050505050600190811b01905550565b6000600182016106f8576106f861056e565b5060010190565b6060815260006107126060830186610497565b846020840152828103604084015261072a8185610497565b9695505050505050565b634e487b7160e01b600052603260045260246000fdfea2646970667358221220b6e64e6190bd739e5a5674493b002ca4f99b03bdee5fba3bb66eac86478cb00f64736f6c63430008110033",
    "linkReferences": {},
    "deployedLinkReferences": {}
}